{
  "contractName": "Transaction",
  "abi": [
    {
      "inputs": [],
      "stateMutability": "nonpayable",
      "type": "constructor"
    },
    {
      "anonymous": false,
      "inputs": [
        {
          "indexed": false,
          "internalType": "address",
          "name": "owner",
          "type": "address"
        }
      ],
      "name": "OwnerSet",
      "type": "event"
    },
    {
      "anonymous": false,
      "inputs": [
        {
          "indexed": false,
          "internalType": "address",
          "name": "seller",
          "type": "address"
        }
      ],
      "name": "SellerSet",
      "type": "event"
    },
    {
      "inputs": [
        {
          "internalType": "address",
          "name": "",
          "type": "address"
        }
      ],
      "name": "balanceSheets",
      "outputs": [
        {
          "internalType": "uint256",
          "name": "CashAccount",
          "type": "uint256"
        },
        {
          "internalType": "uint256",
          "name": "ARAccount",
          "type": "uint256"
        },
        {
          "internalType": "uint256",
          "name": "InventoryAccount",
          "type": "uint256"
        },
        {
          "internalType": "uint256",
          "name": "CoGSAccount",
          "type": "uint256"
        },
        {
          "internalType": "uint256",
          "name": "SalesAccount",
          "type": "uint256"
        }
      ],
      "stateMutability": "view",
      "type": "function",
      "constant": true
    },
    {
      "inputs": [
        {
          "internalType": "uint256",
          "name": "",
          "type": "uint256"
        }
      ],
      "name": "journalEntrys",
      "outputs": [
        {
          "internalType": "uint256",
          "name": "txId",
          "type": "uint256"
        },
        {
          "internalType": "string",
          "name": "item",
          "type": "string"
        },
        {
          "internalType": "uint256",
          "name": "cost",
          "type": "uint256"
        },
        {
          "internalType": "uint256",
          "name": "price",
          "type": "uint256"
        },
        {
          "internalType": "address",
          "name": "buyer",
          "type": "address"
        },
        {
          "internalType": "bool",
          "name": "isBought",
          "type": "bool"
        },
        {
          "internalType": "bool",
          "name": "isShipped",
          "type": "bool"
        },
        {
          "internalType": "bool",
          "name": "isReceived",
          "type": "bool"
        }
      ],
      "stateMutability": "view",
      "type": "function",
      "constant": true
    },
    {
      "inputs": [],
      "name": "owner",
      "outputs": [
        {
          "internalType": "address",
          "name": "",
          "type": "address"
        }
      ],
      "stateMutability": "view",
      "type": "function",
      "constant": true
    },
    {
      "inputs": [],
      "name": "seller",
      "outputs": [
        {
          "internalType": "address",
          "name": "",
          "type": "address"
        }
      ],
      "stateMutability": "view",
      "type": "function",
      "constant": true
    },
    {
      "inputs": [
        {
          "internalType": "address",
          "name": "accountAddress",
          "type": "address"
        },
        {
          "internalType": "uint256",
          "name": "initBalance",
          "type": "uint256"
        }
      ],
      "name": "initBalanceSheet",
      "outputs": [],
      "stateMutability": "nonpayable",
      "type": "function"
    },
    {
      "inputs": [
        {
          "internalType": "string",
          "name": "item",
          "type": "string"
        },
        {
          "internalType": "uint256",
          "name": "cost",
          "type": "uint256"
        },
        {
          "internalType": "uint256",
          "name": "price",
          "type": "uint256"
        }
      ],
      "name": "sell",
      "outputs": [],
      "stateMutability": "nonpayable",
      "type": "function"
    },
    {
      "inputs": [
        {
          "internalType": "uint256",
          "name": "id",
          "type": "uint256"
        }
      ],
      "name": "buy",
      "outputs": [],
      "stateMutability": "payable",
      "type": "function",
      "payable": true
    },
    {
      "inputs": [
        {
          "internalType": "uint256",
          "name": "id",
          "type": "uint256"
        }
      ],
      "name": "ship",
      "outputs": [],
      "stateMutability": "nonpayable",
      "type": "function"
    },
    {
      "inputs": [
        {
          "internalType": "uint256",
          "name": "id",
          "type": "uint256"
        }
      ],
      "name": "receiveGood",
      "outputs": [],
      "stateMutability": "payable",
      "type": "function",
      "payable": true
    }
  ],
  "bytecode": "0x60806040523480156200001157600080fd5b50336000806101000a81548173ffffffffffffffffffffffffffffffffffffffff021916908373ffffffffffffffffffffffffffffffffffffffff1602179055507f50146d0e3c60aa1d17a70635b05494f864e86144a2201275021014fbf08bafe260008054906101000a900473ffffffffffffffffffffffffffffffffffffffff16604051620000a39190620000f6565b60405180910390a162000113565b600073ffffffffffffffffffffffffffffffffffffffff82169050919050565b6000620000de82620000b1565b9050919050565b620000f081620000d1565b82525050565b60006020820190506200010d6000830184620000e5565b92915050565b611cd980620001236000396000f3fe6080604052600436106100865760003560e01c806349084b431161005957806349084b431461014c5780636d076cd7146101685780638da5cb5b146101a9578063d96a094a146101d4578063f9519bd3146101f057610086565b806304804ee81461008b57806308551a53146100b4578063244f643b146100df578063329b07f514610108575b600080fd5b34801561009757600080fd5b506100b260048036038101906100ad9190611473565b610219565b005b3480156100c057600080fd5b506100c9610426565b6040516100d69190611523565b60405180910390f35b3480156100eb57600080fd5b506101066004803603810190610101919061153e565b61044c565b005b34801561011457600080fd5b5061012f600480360381019061012a919061153e565b61074f565b60405161014398979695949392919061161d565b60405180910390f35b6101666004803603810190610161919061153e565b610876565b005b34801561017457600080fd5b5061018f600480360381019061018a91906116ce565b610e6c565b6040516101a09594939291906116fb565b60405180910390f35b3480156101b557600080fd5b506101be610ea2565b6040516101cb9190611523565b60405180910390f35b6101ee60048036038101906101e9919061153e565b610ec6565b005b3480156101fc57600080fd5b506102176004803603810190610212919061174e565b61104b565b005b33600160006101000a81548173ffffffffffffffffffffffffffffffffffffffff021916908373ffffffffffffffffffffffffffffffffffffffff1602179055507f333be4836c678b45ff3bab0e47cc398f6c7346c2f9f7602f2e7478f3da1c0b1c600160009054906101000a900473ffffffffffffffffffffffffffffffffffffffff166040516102ab9190611523565b60405180910390a160026040518061010001604052806002805490508152602001858152602001848152602001838152602001600073ffffffffffffffffffffffffffffffffffffffff168152602001600015158152602001600015158152602001600015158152509080600181540180825580915050600190039060005260206000209060050201600090919091909150600082015181600001556020820151816001019080519060200190610363929190611240565b50604082015181600201556060820151816003015560808201518160040160006101000a81548173ffffffffffffffffffffffffffffffffffffffff021916908373ffffffffffffffffffffffffffffffffffffffff16021790555060a08201518160040160146101000a81548160ff02191690831515021790555060c08201518160040160156101000a81548160ff02191690831515021790555060e08201518160040160166101000a81548160ff0219169083151502179055505050505050565b600160009054906101000a900473ffffffffffffffffffffffffffffffffffffffff1681565b600160009054906101000a900473ffffffffffffffffffffffffffffffffffffffff1673ffffffffffffffffffffffffffffffffffffffff163373ffffffffffffffffffffffffffffffffffffffff16146104dc576040517f08c379a00000000000000000000000000000000000000000000000000000000081526004016104d3906117da565b60405180910390fd5b60011515600282815481106104f4576104f36117fa565b5b906000526020600020906005020160040160149054906101000a900460ff16151514610555576040517f08c379a000000000000000000000000000000000000000000000000000000000815260040161054c90611875565b60405180910390fd5b600015156002828154811061056d5761056c6117fa565b5b906000526020600020906005020160040160159054906101000a900460ff161515146105ce576040517f08c379a00000000000000000000000000000000000000000000000000000000081526004016105c5906118e1565b60405180910390fd5b6001600282815481106105e4576105e36117fa565b5b906000526020600020906005020160040160156101000a81548160ff021916908315150217905550600281815481106106205761061f6117fa565b5b90600052602060002090600502016003015460036000600160009054906101000a900473ffffffffffffffffffffffffffffffffffffffff1673ffffffffffffffffffffffffffffffffffffffff1673ffffffffffffffffffffffffffffffffffffffff16815260200190815260200160002060010160008282546106a59190611930565b92505081905550600281815481106106c0576106bf6117fa565b5b90600052602060002090600502016003015460036000600160009054906101000a900473ffffffffffffffffffffffffffffffffffffffff1673ffffffffffffffffffffffffffffffffffffffff1673ffffffffffffffffffffffffffffffffffffffff16815260200190815260200160002060040160008282546107459190611930565b9250508190555050565b6002818154811061075f57600080fd5b9060005260206000209060050201600091509050806000015490806001018054610788906119b5565b80601f01602080910402602001604051908101604052809291908181526020018280546107b4906119b5565b80156108015780601f106107d657610100808354040283529160200191610801565b820191906000526020600020905b8154815290600101906020018083116107e457829003601f168201915b5050505050908060020154908060030154908060040160009054906101000a900473ffffffffffffffffffffffffffffffffffffffff16908060040160149054906101000a900460ff16908060040160159054906101000a900460ff16908060040160169054906101000a900460ff16905088565b6002818154811061088a576108896117fa565b5b906000526020600020906005020160040160009054906101000a900473ffffffffffffffffffffffffffffffffffffffff1673ffffffffffffffffffffffffffffffffffffffff163373ffffffffffffffffffffffffffffffffffffffff1614610929576040517f08c379a000000000000000000000000000000000000000000000000000000000815260040161092090611a33565b60405180910390fd5b6001151560028281548110610941576109406117fa565b5b906000526020600020906005020160040160159054906101000a900460ff161515146109a2576040517f08c379a000000000000000000000000000000000000000000000000000000000815260040161099990611a9f565b60405180910390fd5b60001515600282815481106109ba576109b96117fa565b5b906000526020600020906005020160040160169054906101000a900460ff16151514610a1b576040517f08c379a0000000000000000000000000000000000000000000000000000000008152600401610a1290611b0b565b60405180910390fd5b6000600160009054906101000a900473ffffffffffffffffffffffffffffffffffffffff1690508073ffffffffffffffffffffffffffffffffffffffff166108fc60028481548110610a7057610a6f6117fa565b5b9060005260206000209060050201600301549081150290604051600060405180830381858888f19350505050158015610aad573d6000803e3d6000fd5b50600160028381548110610ac457610ac36117fa565b5b906000526020600020906005020160040160166101000a81548160ff02191690831515021790555060028281548110610b0057610aff6117fa565b5b90600052602060002090600502016003015460036000600160009054906101000a900473ffffffffffffffffffffffffffffffffffffffff1673ffffffffffffffffffffffffffffffffffffffff1673ffffffffffffffffffffffffffffffffffffffff1681526020019081526020016000206000016000828254610b859190611930565b9250508190555060028281548110610ba057610b9f6117fa565b5b90600052602060002090600502016003015460036000600160009054906101000a900473ffffffffffffffffffffffffffffffffffffffff1673ffffffffffffffffffffffffffffffffffffffff1673ffffffffffffffffffffffffffffffffffffffff1681526020019081526020016000206001016000828254610c259190611b2b565b9250508190555060028281548110610c4057610c3f6117fa565b5b90600052602060002090600502016002015460036000600160009054906101000a900473ffffffffffffffffffffffffffffffffffffffff1673ffffffffffffffffffffffffffffffffffffffff1673ffffffffffffffffffffffffffffffffffffffff1681526020019081526020016000206003016000828254610cc59190611930565b9250508190555060028281548110610ce057610cdf6117fa565b5b90600052602060002090600502016002015460036000600160009054906101000a900473ffffffffffffffffffffffffffffffffffffffff1673ffffffffffffffffffffffffffffffffffffffff1673ffffffffffffffffffffffffffffffffffffffff1681526020019081526020016000206002016000828254610d659190611b2b565b9250508190555060028281548110610d8057610d7f6117fa565b5b906000526020600020906005020160030154600360003373ffffffffffffffffffffffffffffffffffffffff1673ffffffffffffffffffffffffffffffffffffffff1681526020019081526020016000206002016000828254610de39190611930565b9250508190555060028281548110610dfe57610dfd6117fa565b5b906000526020600020906005020160030154600360003373ffffffffffffffffffffffffffffffffffffffff1673ffffffffffffffffffffffffffffffffffffffff1681526020019081526020016000206000016000828254610e619190611b2b565b925050819055505050565b60036020528060005260406000206000915090508060000154908060010154908060020154908060030154908060040154905085565b60008054906101000a900473ffffffffffffffffffffffffffffffffffffffff1681565b6000151560028281548110610ede57610edd6117fa565b5b906000526020600020906005020160040160149054906101000a900460ff16151514610f3f576040517f08c379a0000000000000000000000000000000000000000000000000000000008152600401610f3690611bab565b60405180910390fd5b60028181548110610f5357610f526117fa565b5b9060005260206000209060050201600301543414610fa6576040517f08c379a0000000000000000000000000000000000000000000000000000000008152600401610f9d90611c17565b60405180910390fd5b3360028281548110610fbb57610fba6117fa565b5b906000526020600020906005020160040160006101000a81548173ffffffffffffffffffffffffffffffffffffffff021916908373ffffffffffffffffffffffffffffffffffffffff1602179055506001600282815481106110205761101f6117fa565b5b906000526020600020906005020160040160146101000a81548160ff02191690831515021790555050565b60008054906101000a900473ffffffffffffffffffffffffffffffffffffffff1673ffffffffffffffffffffffffffffffffffffffff163373ffffffffffffffffffffffffffffffffffffffff16146110d9576040517f08c379a00000000000000000000000000000000000000000000000000000000081526004016110d090611c83565b60405180910390fd5b80600360008473ffffffffffffffffffffffffffffffffffffffff1673ffffffffffffffffffffffffffffffffffffffff1681526020019081526020016000206000018190555080600360008473ffffffffffffffffffffffffffffffffffffffff1673ffffffffffffffffffffffffffffffffffffffff1681526020019081526020016000206001018190555080600360008473ffffffffffffffffffffffffffffffffffffffff1673ffffffffffffffffffffffffffffffffffffffff1681526020019081526020016000206002018190555080600360008473ffffffffffffffffffffffffffffffffffffffff1673ffffffffffffffffffffffffffffffffffffffff1681526020019081526020016000206003018190555080600360008473ffffffffffffffffffffffffffffffffffffffff1673ffffffffffffffffffffffffffffffffffffffff168152602001908152602001600020600401819055505050565b82805461124c906119b5565b90600052602060002090601f01602090048101928261126e57600085556112b5565b82601f1061128757805160ff19168380011785556112b5565b828001600101855582156112b5579182015b828111156112b4578251825591602001919060010190611299565b5b5090506112c291906112c6565b5090565b5b808211156112df5760008160009055506001016112c7565b5090565b6000604051905090565b600080fd5b600080fd5b600080fd5b600080fd5b6000601f19601f8301169050919050565b7f4e487b7100000000000000000000000000000000000000000000000000000000600052604160045260246000fd5b61134a82611301565b810181811067ffffffffffffffff8211171561136957611368611312565b5b80604052505050565b600061137c6112e3565b90506113888282611341565b919050565b600067ffffffffffffffff8211156113a8576113a7611312565b5b6113b182611301565b9050602081019050919050565b82818337600083830152505050565b60006113e06113db8461138d565b611372565b9050828152602081018484840111156113fc576113fb6112fc565b5b6114078482856113be565b509392505050565b600082601f830112611424576114236112f7565b5b81356114348482602086016113cd565b91505092915050565b6000819050919050565b6114508161143d565b811461145b57600080fd5b50565b60008135905061146d81611447565b92915050565b60008060006060848603121561148c5761148b6112ed565b5b600084013567ffffffffffffffff8111156114aa576114a96112f2565b5b6114b68682870161140f565b93505060206114c78682870161145e565b92505060406114d88682870161145e565b9150509250925092565b600073ffffffffffffffffffffffffffffffffffffffff82169050919050565b600061150d826114e2565b9050919050565b61151d81611502565b82525050565b60006020820190506115386000830184611514565b92915050565b600060208284031215611554576115536112ed565b5b60006115628482850161145e565b91505092915050565b6115748161143d565b82525050565b600081519050919050565b600082825260208201905092915050565b60005b838110156115b4578082015181840152602081019050611599565b838111156115c3576000848401525b50505050565b60006115d48261157a565b6115de8185611585565b93506115ee818560208601611596565b6115f781611301565b840191505092915050565b60008115159050919050565b61161781611602565b82525050565b600061010082019050611633600083018b61156b565b8181036020830152611645818a6115c9565b9050611654604083018961156b565b611661606083018861156b565b61166e6080830187611514565b61167b60a083018661160e565b61168860c083018561160e565b61169560e083018461160e565b9998505050505050505050565b6116ab81611502565b81146116b657600080fd5b50565b6000813590506116c8816116a2565b92915050565b6000602082840312156116e4576116e36112ed565b5b60006116f2848285016116b9565b91505092915050565b600060a082019050611710600083018861156b565b61171d602083018761156b565b61172a604083018661156b565b611737606083018561156b565b611744608083018461156b565b9695505050505050565b60008060408385031215611765576117646112ed565b5b6000611773858286016116b9565b92505060206117848582860161145e565b9150509250929050565b7f4d53472e53454e444552206973206e6f742053656c6c65720000000000000000600082015250565b60006117c4601883611585565b91506117cf8261178e565b602082019050919050565b600060208201905081810360008301526117f3816117b7565b9050919050565b7f4e487b7100000000000000000000000000000000000000000000000000000000600052603260045260246000fd5b7f4e6f7420626f75676874207965742e0000000000000000000000000000000000600082015250565b600061185f600f83611585565b915061186a82611829565b602082019050919050565b6000602082019050818103600083015261188e81611852565b9050919050565b7f416c726561647920736869707065642e00000000000000000000000000000000600082015250565b60006118cb601083611585565b91506118d682611895565b602082019050919050565b600060208201905081810360008301526118fa816118be565b9050919050565b7f4e487b7100000000000000000000000000000000000000000000000000000000600052601160045260246000fd5b600061193b8261143d565b91506119468361143d565b9250827fffffffffffffffffffffffffffffffffffffffffffffffffffffffffffffffff0382111561197b5761197a611901565b5b828201905092915050565b7f4e487b7100000000000000000000000000000000000000000000000000000000600052602260045260246000fd5b600060028204905060018216806119cd57607f821691505b602082108114156119e1576119e0611986565b5b50919050565b7f6d73672e73656e646572206973206e6f74205448452042757965720000000000600082015250565b6000611a1d601b83611585565b9150611a28826119e7565b602082019050919050565b60006020820190508181036000830152611a4c81611a10565b9050919050565b7f4e6f742073686970706564207965742e00000000000000000000000000000000600082015250565b6000611a89601083611585565b9150611a9482611a53565b602082019050919050565b60006020820190508181036000830152611ab881611a7c565b9050919050565b7f416c72656164792072656365697665642e000000000000000000000000000000600082015250565b6000611af5601183611585565b9150611b0082611abf565b602082019050919050565b60006020820190508181036000830152611b2481611ae8565b9050919050565b6000611b368261143d565b9150611b418361143d565b925082821015611b5457611b53611901565b5b828203905092915050565b7f416c726561647920626f756768742e0000000000000000000000000000000000600082015250565b6000611b95600f83611585565b9150611ba082611b5f565b602082019050919050565b60006020820190508181036000830152611bc481611b88565b9050919050565b7f4e6f7420636f7272656374207061796d656e742e000000000000000000000000600082015250565b6000611c01601483611585565b9150611c0c82611bcb565b602082019050919050565b60006020820190508181036000830152611c3081611bf4565b9050919050565b7f4d53472e53454e444552206973206e6f74204f776e6572000000000000000000600082015250565b6000611c6d601783611585565b9150611c7882611c37565b602082019050919050565b60006020820190508181036000830152611c9c81611c60565b905091905056fea26469706673582212200f84cc2de4bd43016f3136fef9817454b7e8ee0a91cdede62662c69e6fc7341d64736f6c634300080b0033",
  "immutableReferences": {},
  "source": "// SPDX-License-Identifier: GPL-3.0\npragma solidity >=0.7.0 <0.9.0;\n\ncontract Transaction {\n    address public owner;\n    address public seller;\n        \n    struct JournalEntry {\n        uint txId;\n        string item;\n        uint cost;\n        uint price;\n        address buyer;\n        bool isBought;\n        bool isShipped;\n        bool isReceived;\n    }\n    \n    struct BalanceSheet {\n        uint CashAccount;\n        uint ARAccount;\n        uint InventoryAccount;\n        uint CoGSAccount;\n        uint SalesAccount;\n    }\n\n    JournalEntry [] public journalEntrys;\n    mapping(address => BalanceSheet) public balanceSheets;  \n    \n    event OwnerSet(address owner);\n    event SellerSet(address seller);\n    \n    // modifier to check if sender is owner\n    modifier isOwner() {\n        require(msg.sender == owner, \"MSG.SENDER is not Owner\");\n        _;\n    }\n    // modifier to check if sender is seller\n    modifier isSeller() {\n        require(msg.sender == seller, \"MSG.SENDER is not Seller\");\n        _;\n    }\n    \n    /**\n     * @dev Set contract deployer as contract owner\n     */\n    constructor() {\n        owner = msg.sender; // 'msg.sender' is sender of current call, contract deployer for a constructor\n        emit OwnerSet(owner);\n    }\n    \n    function initBalanceSheet(address accountAddress, uint initBalance) public isOwner {    \n        balanceSheets[accountAddress].CashAccount = initBalance;\n        balanceSheets[accountAddress].ARAccount = initBalance;\n        balanceSheets[accountAddress].InventoryAccount = initBalance;\n        balanceSheets[accountAddress].CoGSAccount = initBalance;\n        balanceSheets[accountAddress].SalesAccount = initBalance;\n    }\n\n    function sell(string memory item, uint cost, uint price) public {\n        seller = msg.sender;\n        emit SellerSet(seller);\n\n        journalEntrys.push(JournalEntry({\n            txId: journalEntrys.length,\n            item: item,\n            cost: cost,\n            price: price,\n            buyer: address(0x0),\n            isBought: false,\n            isShipped: false,\n            isReceived: false\n        }));\n    }\n            \n    function buy(uint id) public payable {\n        require(journalEntrys[id].isBought == false, \"Already bought.\");\n        require(msg.value == journalEntrys[id].price, \"Not correct payment.\");\n    \n        journalEntrys[id].buyer = msg.sender;\n        journalEntrys[id].isBought = true;\n    }\n    \n    function ship(uint id) public isSeller {\n        require(journalEntrys[id].isBought == true, \"Not bought yet.\");\n        require(journalEntrys[id].isShipped == false, \"Already shipped.\");\n        \n        journalEntrys[id].isShipped = true;\n        \n        balanceSheets[seller].ARAccount += journalEntrys[id].price;\n        balanceSheets[seller].SalesAccount += journalEntrys[id].price;\n    }\n    \n    function receiveGood(uint id) public payable {\n        require(msg.sender == journalEntrys[id].buyer, \"msg.sender is not THE Buyer\");\n        require(journalEntrys[id].isShipped == true, \"Not shipped yet.\");\n        require(journalEntrys[id].isReceived == false, \"Already received.\");\n        \n        address payable sellerWallet = payable(seller);\n        sellerWallet.transfer(journalEntrys[id].price);\n\n        journalEntrys[id].isReceived = true;\n        \n        balanceSheets[seller].CashAccount += journalEntrys[id].price;\n        balanceSheets[seller].ARAccount -= journalEntrys[id].price;\n        balanceSheets[seller].CoGSAccount += (journalEntrys[id].cost);\n        balanceSheets[seller].InventoryAccount -= (journalEntrys[id].cost);\n        \n        balanceSheets[msg.sender].InventoryAccount += journalEntrys[id].price;\n        balanceSheets[msg.sender].CashAccount -= journalEntrys[id].price;\n    }\n}",
  "sourcePath": "/Users/juihungkao/Desktop/NTHU/blockchain_coding/transaction-dapp/contracts/Transaction.sol",
  "compiler": {
    "name": "solc",
    "version": "0.8.11+commit.d7f03943.Emscripten.clang"
  },
  "schemaVersion": "3.4.4",
  "updatedAt": "2022-02-07T15:18:13.187Z",
  "networkType": "ethereum",
  "devdoc": {
    "kind": "dev",
    "methods": {
      "constructor": {
        "details": "Set contract deployer as contract owner"
      }
    },
    "version": 1
  },
  "userdoc": {
    "kind": "user",
    "methods": {},
    "version": 1
  }
}